{
  "_format": "hh-sol-artifact-1",
  "contractName": "Transactions",
  "sourceName": "contracts/Transactions.sol",
  "abi": [
    {
      "anonymous": false,
      "inputs": [
        {
          "indexed": false,
          "internalType": "address",
          "name": "from",
          "type": "address"
        },
        {
          "indexed": false,
          "internalType": "address",
          "name": "receiver",
          "type": "address"
        },
        {
          "indexed": false,
          "internalType": "uint256",
          "name": "amount",
          "type": "uint256"
        },
        {
          "indexed": false,
          "internalType": "string",
          "name": "message",
          "type": "string"
        },
        {
          "indexed": false,
          "internalType": "uint256",
          "name": "timestamp",
          "type": "uint256"
        },
        {
          "indexed": false,
          "internalType": "string",
          "name": "keyword",
          "type": "string"
        }
      ],
      "name": "Transfer",
      "type": "event"
    },
    {
      "inputs": [
        {
          "internalType": "address payable",
          "name": "receiver",
          "type": "address"
        },
        {
          "internalType": "uint256",
          "name": "amount",
          "type": "uint256"
        },
        {
          "internalType": "string",
          "name": "message",
          "type": "string"
        },
        {
          "internalType": "string",
          "name": "keyword",
          "type": "string"
        }
      ],
      "name": "addToBlockchain",
      "outputs": [],
      "stateMutability": "payable",
      "type": "function"
    },
    {
      "inputs": [],
      "name": "getAllTransactions",
      "outputs": [
        {
          "components": [
            {
              "internalType": "address",
              "name": "sender",
              "type": "address"
            },
            {
              "internalType": "address",
              "name": "receiver",
              "type": "address"
            },
            {
              "internalType": "uint256",
              "name": "amount",
              "type": "uint256"
            },
            {
              "internalType": "string",
              "name": "message",
              "type": "string"
            },
            {
              "internalType": "uint256",
              "name": "timestamp",
              "type": "uint256"
            },
            {
              "internalType": "string",
              "name": "keyword",
              "type": "string"
            }
          ],
          "internalType": "struct Transactions.TransferStruct[]",
          "name": "",
          "type": "tuple[]"
        }
      ],
      "stateMutability": "view",
      "type": "function"
    },
    {
      "inputs": [],
      "name": "getTransactionCount",
      "outputs": [
        {
          "internalType": "uint256",
          "name": "",
          "type": "uint256"
        }
      ],
      "stateMutability": "view",
      "type": "function"
    },
    {
      "inputs": [
        {
          "internalType": "address",
          "name": "user",
          "type": "address"
        }
      ],
      "name": "getTransactionsByAddress",
      "outputs": [
        {
          "components": [
            {
              "internalType": "address",
              "name": "sender",
              "type": "address"
            },
            {
              "internalType": "address",
              "name": "receiver",
              "type": "address"
            },
            {
              "internalType": "uint256",
              "name": "amount",
              "type": "uint256"
            },
            {
              "internalType": "string",
              "name": "message",
              "type": "string"
            },
            {
              "internalType": "uint256",
              "name": "timestamp",
              "type": "uint256"
            },
            {
              "internalType": "string",
              "name": "keyword",
              "type": "string"
            }
          ],
          "internalType": "struct Transactions.TransferStruct[]",
          "name": "",
          "type": "tuple[]"
        }
      ],
      "stateMutability": "view",
      "type": "function"
    }
  ],
  "bytecode": "0x6080604052348015600f57600080fd5b50610c338061001f6000396000f3fe608060405234801561001057600080fd5b506004361061004c5760003560e01c80630947b4dc1461005157806327506f531461007a5780632e7700f014610082578063cc2d7ead14610093575b600080fd5b61006461005f3660046107a7565b6100a8565b6040516100719190610811565b60405180910390f35b6100646103f9565b600054604051908152602001610071565b6100a66100a136600461097a565b6105b4565b005b60606000805467ffffffffffffffff8111156100c6576100c66108d5565b6040519080825280602002602001820160405280156100ff57816020015b6100ec610747565b8152602001906001900390816100e45790505b5090506000805b60015481101561034e57846001600160a01b03166001828154811061012d5761012d6109ff565b60009182526020909120600690910201546001600160a01b0316148061018a5750846001600160a01b03166001828154811061016b5761016b6109ff565b60009182526020909120600160069092020101546001600160a01b0316145b1561034657600181815481106101a2576101a26109ff565b60009182526020918290206040805160c081018252600690930290910180546001600160a01b039081168452600182015416938301939093526002830154908201526003820180549192916060840191906101fc90610a15565b80601f016020809104026020016040519081016040528092919081815260200182805461022890610a15565b80156102755780601f1061024a57610100808354040283529160200191610275565b820191906000526020600020905b81548152906001019060200180831161025857829003601f168201915b505050505081526020016004820154815260200160058201805461029890610a15565b80601f01602080910402602001604051908101604052809291908181526020018280546102c490610a15565b80156103115780601f106102e657610100808354040283529160200191610311565b820191906000526020600020905b8154815290600101906020018083116102f457829003601f168201915b50505050508152505083838151811061032c5761032c6109ff565b6020026020010181905250818061034290610a65565b9250505b600101610106565b5060008167ffffffffffffffff81111561036a5761036a6108d5565b6040519080825280602002602001820160405280156103a357816020015b610390610747565b8152602001906001900390816103885790505b50905060005b828110156103f0578381815181106103c3576103c36109ff565b60200260200101518282815181106103dd576103dd6109ff565b60209081029190910101526001016103a9565b50949350505050565b60606001805480602002602001604051908101604052809291908181526020016000905b828210156105ab5760008481526020908190206040805160c0810182526006860290920180546001600160a01b0390811684526001820154169383019390935260028301549082015260038201805491929160608401919061047e90610a15565b80601f01602080910402602001604051908101604052809291908181526020018280546104aa90610a15565b80156104f75780601f106104cc576101008083540402835291602001916104f7565b820191906000526020600020905b8154815290600101906020018083116104da57829003601f168201915b505050505081526020016004820154815260200160058201805461051a90610a15565b80601f016020809104026020016040519081016040528092919081815260200182805461054690610a15565b80156105935780601f1061056857610100808354040283529160200191610593565b820191906000526020600020905b81548152906001019060200180831161057657829003601f168201915b5050505050815250508152602001906001019061041d565b50505050905090565b60016000808282546105c69190610a7e565b90915550506040805160c0810182523381526001600160a01b03868116602083019081529282018681526060830186815242608085015260a08401869052600180548082018255600091909152845160069091027fb10e2d527612073b26eecdfd717e6a320cf44b4afac2b0732d9fcbe2b7fa0cf6810180549286166001600160a01b031993841617815596517fb10e2d527612073b26eecdfd717e6a320cf44b4afac2b0732d9fcbe2b7fa0cf7820180549190961692169190911790935590517fb10e2d527612073b26eecdfd717e6a320cf44b4afac2b0732d9fcbe2b7fa0cf8830155519192917fb10e2d527612073b26eecdfd717e6a320cf44b4afac2b0732d9fcbe2b7fa0cf9909101906106de9082610ae6565b506080820151600482015560a082015160058201906106fd9082610ae6565b5050507f416cfa4330a4565f45c2fd2dd4826a83a37443aba2ce6f79477c7355afac35fa33858585428660405161073996959493929190610ba5565b60405180910390a150505050565b6040518060c0016040528060006001600160a01b0316815260200160006001600160a01b03168152602001600081526020016060815260200160008152602001606081525090565b6001600160a01b03811681146107a457600080fd5b50565b6000602082840312156107b957600080fd5b81356107c48161078f565b9392505050565b6000815180845260005b818110156107f1576020818501810151868301820152016107d5565b506000602082860101526020601f19601f83011685010191505092915050565b6000602082016020835280845180835260408501915060408160051b86010192506020860160005b828110156108c957603f19878603018452815160018060a01b03815116865260018060a01b03602082015116602087015260408101516040870152606081015160c0606088015261088d60c08801826107cb565b90506080820151608088015260a0820151915086810360a08801526108b281836107cb565b965050506020938401939190910190600101610839565b50929695505050505050565b634e487b7160e01b600052604160045260246000fd5b600082601f8301126108fc57600080fd5b813567ffffffffffffffff811115610916576109166108d5565b604051601f8201601f19908116603f0116810167ffffffffffffffff81118282101715610945576109456108d5565b60405281815283820160200185101561095d57600080fd5b816020850160208301376000918101602001919091529392505050565b6000806000806080858703121561099057600080fd5b843561099b8161078f565b935060208501359250604085013567ffffffffffffffff8111156109be57600080fd5b6109ca878288016108eb565b925050606085013567ffffffffffffffff8111156109e757600080fd5b6109f3878288016108eb565b91505092959194509250565b634e487b7160e01b600052603260045260246000fd5b600181811c90821680610a2957607f821691505b602082108103610a4957634e487b7160e01b600052602260045260246000fd5b50919050565b634e487b7160e01b600052601160045260246000fd5b600060018201610a7757610a77610a4f565b5060010190565b80820180821115610a9157610a91610a4f565b92915050565b601f821115610ae157806000526020600020601f840160051c81016020851015610abe5750805b601f840160051c820191505b81811015610ade5760008155600101610aca565b50505b505050565b815167ffffffffffffffff811115610b0057610b006108d5565b610b1481610b0e8454610a15565b84610a97565b6020601f821160018114610b485760008315610b305750848201515b600019600385901b1c1916600184901b178455610ade565b600084815260208120601f198516915b82811015610b785787850151825560209485019460019092019101610b58565b5084821015610b965786840151600019600387901b60f8161c191681555b50505050600190811b01905550565b6001600160a01b038781168252861660208201526040810185905260c060608201819052600090610bd8908301866107cb565b84608084015282810360a0840152610bf081856107cb565b999850505050505050505056fea2646970667358221220bbbf5aa16a7970e9f78f8bd79ef85b80de5cd8eefb828ce94a32ed448c66e60064736f6c634300081c0033",
  "linkReferences": {},
  "deployedLinkReferences": {}
}